:020000040800F2
:10000000C0270020E9300008F97B0008D53000083F
:10001000D5300008D5300008D530000800000000B9
:10002000000000000000000000000000E9310008AE
:10003000D53000080000000081310008B140000800
:100040007D3300087D3300087D3300087D330008D0
:100050007D3300087D3300087D3300087D330008C0
:100060007D3300087D3300087D3300087D330008B0
:100070007D3300087D3300087D3300087D330008A0
:100080007D3300087D3300087D3300087D33000890
:100090007D3300087D3300087D3300087D33000880
:1000A0007D3300087D3300087D3300087D33000870
:1000B0007D3300087D3300087D3300087D33000860
:1000C0007D3300087D3300087D3300087D33000850
:1000D0007D3300087D3300087D3300087D33000840
:1000E0007D3300087D3300087D3300087D33000830
:1000F0007D3300087D3300087D3300087D33000820
:100100007D3300087D3300087D3300087D3300080F
:100110007D3300087D3300087D3300087D330008FF
:100120007D3300087D3300087D3300087D330008EF
:100130007D3300087D3300087D3300087D330008DF
:100140007D3300087D3300087D3300087D330008CF
:100150007D3300087D3300087D3300087D330008BF
:100160007D3300087D3300087D3300087D330008AF
:100170007D3300087D3300087D3300087D3300089F
:100180007D3300087D3300087D3300087D3300088F
:100190007D3300087D3300087D3300087D3300087F
:1001A0007D3300087D3300087D3300087D3300086F
:1001B0007D3300087D3300087D3300087D3300085F
:1001C0007D3300087D3300087D3300087D3300084F
:0801D0007D3300087D330008B7
:1001D8007BB972B90029BEBF00204FF0004106E08C
:1001E80008BF00281CBF6FF000414FF0FF3000F03F
:1001F80057B8ADF1080C6DE904CE002909DB002BD6
:100208001ADB00F04FF8DDF804E0DDE9022304B062
:100218007047404261EB4101002B1BDB00F042F8C4
:10022800DDF804E0DDE9022304B0404261EB41015E
:10023800524263EB43037047524263EB430300F0BF
:1002480031F8DDF804E0DDE9022304B0404261EB57
:1002580041017047524263EB430300F023F8DDF895
:1002680004E0DDE9022304B0524263EB4303704724
:1002780053B94AB9002908BF00281CBF4FF0FF3105
:100288004FF0FF3000F00CB8ADF1080C6DE904CE6A
:1002980000F008F8DDF804E0DDE9022304B0704757
:1002A800704700BF2DE9F04786468C460846089EF1
:1002B800154674461946002B40F0C2808542B2FAB2
:1002C80082F245D94AB1C2F1200300FA02FC2EFAA3
:1002D80003F3954043EA0C0C94404FEA154EA8B23C
:1002E800BCFBFEF8230C0EFB18CC08FB00F943EA14
:1002F8000C43994528D9EB1808F1FF3704D29945E2
:1003080002D9A8F102072B44A3EB0903A4B2B3FB5B
:10031800FEFC0EFB1C330CFB00F044EA0344A04235
:1003280014D92C190CF1FF3304D2A04202D9ACF134
:1003380002032C44241A43EA07401EB1D440002388
:1003480034607360BDE8F0874746DDE76346F1E750
:1003580092BB431B01214FEA154EAFB2B3FBFEFC23
:10036800200C0EFB1C330CFB07F840EA03439845AE
:1003780062D9EB180CF1FF3004D2984502D9ACF1E0
:1003880002002B44A3EB0803A4B2B3FBFEFC0EFB54
:100398001C330CFB07F744EA0344A7424ED92C1937
:1003A8000CF1FF3304D2A74202D9ACF102032C446A
:1003B800E41B43EA0040C0E7C2F1200320FA03F13E
:1003C800954090402EFA03F303434FEA154EAFB21F
:1003D800B1FBFEFC0EFB1C10190C0CFB07F841EAE4
:1003E8000041884504FA02F422D969180CF1FF305B
:1003F80004D2884502D9ACF102002944A1EB0801D6
:100408009BB2B1FBFEFC0EFB1C110CFB07F743EA89
:1004180001439F420ED9EB180CF1FF3104D29F42E1
:1004280002D9ACF102012B44DB1B41EA004192E7FF
:100438006046E3E76146F7E76046A3E76346B7E748
:10044800834206D916B9002108467BE7C6E900E0D1
:10045800F9E7B3FA83F78FB9834201D3724508D815
:10046800BEEB020460EB030301209C461EB9002189
:1004780068E73846FAE7C6E9004CF8E7C7F1200C08
:10048800BB4022FA0CF41C432EFA0CF120FA0CF3B0
:10049800B84001434FEA14490EFA07F5B3FBF9F8DF
:1004A8001FFA84FE09FB18300B0C08FB0EFA43EA0E
:1004B80000439A4502FA07F240D9E31808F1FF30E1
:1004C80004D29A4502D9A8F102002344A3EB0A03F7
:1004D80089B2B3FBF9F809FB183308FB0EFE41EAB1
:1004E80003418E452CD9611808F1FF3304D28E459B
:1004F80002D9A8F10203214443EA0040A0FB029874
:10050800A1EB0E014145CE46434602D306D14D45E7
:1005180004D2B9EB020E68EB04030138002EA6D012
:10052800B5EB0E0261EB030101FA0CFC22FA07F3AA
:100538004CEA0303F940C6E9003198E74046C5E7AD
:100548004346D9E710F8012B11F8013B012A28BFCF
:100558009A42F7D0D01A7047034611F8012B03F8D6
:10056800012B002AF9D17047034613F8012B002A02
:10057800FBD1181A013870472DE9F04704468AB0B4
:100588008846174608F0E9FA0A220023FFF770FEAA
:10059800B8F1010F06460D4608D1CDE900012A4AF7
:1005A8000821204606F0C0FE002012E07F68274898
:1005B8003946FFF7C7FF78B125483946FFF7C2FF2C
:1005C80050B12046234A3B46012106F0ADFE6FF0AC
:1005D80004000AB0BDE8F0873046294618A3D3E9DD
:1005E8000023FFF7F5FD06460D46104619461A4A40
:1005F8000023FFF7EDFD80460F46104619464EF6DC
:1006080060220023FFF7E4FD82468946104619461A
:100618004FF47A720023FFF7DBFDCDE904A9CDE999
:100628000601CDE90823CDE90287CDE900650B4A2B
:100638000821204606F078FEB6E700BFAFF3008039
:10064800005C26050000000036A2000847A200084A
:100658004AA2000853A2000880EE36006AA20008E9
:100668002DE9F341044608F078FA276906460D4655
:10067800A36820465B6801A99847044620B93B68EF
:10068800019C5C40C4F34034DFF85C80D8F800304B
:10069800A34225D00A22002330462946FFF7E8FD69
:1006A800124D0E46D5E9001307467A1A66EB030386
:1006B800332A73F1000313DB03F0BCFD2146024625
:1006C8000B4806F07DFBC5E90076C8F8004003F04A
:1006D800B1FD0146074806F073FB0023C8F8003057
:1006E80002B0BDE8F08100BF000000201801002022
:1006F80044A1000866A1000810B5094C0948226801
:10070800002A02F00102B8BF5242052106F046FB5A
:100718002368054801332360BDE8104004F0CABAD5
:10072800E004002034930008F004002070B5254C44
:10073800204608F02DF828B92168234806F040FB28
:10074800002070BD4FF48031204806F012FB0146AE
:1007580028B122681E480D2306F032FBF0E7A56891
:100768002369AE699EB11B6813F4005F4FF00D0159
:1007780014BF4FF000734FF080634FF0A072204613
:10078800B047014630B1226812480D23E4E76FF004
:100798005701F8E71049114B4B604FF400538B6039
:1007A800EB6913B101222046984721680C480D22B5
:1007B80006F006FB0B490C4808F04DF80A4804F00F
:1007C80079FABDE70C9300087CA10008E0990008BD
:1007D800A2A10008CBA10008E404002069060008D3
:1007E80001A2000801070008F00400202DE9F041EB
:1007F80007460E46154600F08FF8C36804461BB935
:1008080043691A78002A41D10023E3606368BB4238
:1008180056F8232008DB324B6361204600F062F86B
:100828004FF0FF30BDE8F081511C616192F8008003
:10083800B8F12D0FEFD1911C61615178A1602D297C
:1008480004D192786AB901336360E4E749B9244B6B
:1008580063614146284608F00BFB0028DDD0C4F848
:100868000880D4F808802846414608F001FBB8F112
:100878003A0F636900D070B91B7813B96368013304
:100888006360204600F02EF83F20CBE75A1C4261F7
:100898001B788360E5E742783A2A0BD00022226170
:1008A8001B7813B9636801336360204600F01AF8B7
:1008B800A068B7E718786268094928B901329742F1
:1008C800626004DD56F82230C4E90431EAE7616168
:1008D8002D783A2D2046D5D100F004F82846A1E716
:1008E80098A30008074B02681A60074B42681A6011
:1008F800064B82681A60064BC2681A60054B02698B
:100908001A607047200000201C0000200805002005
:10091800040500200005002000487047040000205E
:10092800014B1B68184700BF24000020014B1860CA
:10093800704700BF2400002030B585B004460D463E
:1009480010220021684608F02DFC02238DF80230A1
:100958002A46044B01932146684605F0B1F805B0D4
:1009680030BD00BF2909000880B505460E46174668
:10097800984604F0DBFC034608F024FCDFF81890E6
:10098800044649F80030424630463946A84754F8EC
:10099800090002F0C1FB00BF080000000D4B0E4A21
:1009A8001A600E4A536843F0010353600C4B9A6D6A
:1009B80042F080529A659B6D0A4A82B003F08053D8
:1009C8000193019B9368002043F48043936002B035
:1009D800704700BFC40000200024F400002004E099
:1009E8000010024000700040034A536823F00203DD
:1009F80053600020704700BF002004E0014B0360F3
:100A080000207047E899000813B5044603F07AFF00
:100A1800C0F307230193C0F307430093044A030E6E
:100A28000821204606F080FC002002B010BD00BF5F
:100A38001DA2000810B5044603F0DEFB084A034671
:100A48000821204606F070FC064A2046082106F0D8
:100A58006BFC0548214603F0DDFD002010BD00BFFA
:100A6800B8A20008D7A20008750A000870B58EB0B1
:100A780004460D46D0F89C6007F0ABFE024608F02D
:100A8800A1FB254B1958254B002A18BF1346CDE961
:100A98000043234A234B28468C4218BF1346224A58
:100AA800082106F041FCD4E90A23CDE9022394F990
:100AB8000E300093237B1D4A2846082106F034FC9B
:100AC80006A92022204603F0EDFD626E009203463F
:100AD800174A0821284606F027FC05A9204607F0F2
:100AE80088FE034630B1134A0821284606F01CFC4C
:100AF8000EB070BD059A6423B11ACDE900214B43AD
:100B08000D4AB3FBF6F30821CDE9026328463346C4
:100B180006F00AFCECE700BF08000000E3A20008AA
:100B280011AB0008E1A20008E6A20008F2A2000842
:100B38001EA3000835A3000862A30008F0B500252D
:100B480093B0044629460AAF1C220BA808F02AFBDA
:100B5800144E1A222021384608F024FB2146124858
:100B680003F058FD09AA4FF40061304607F035FE3E
:100B780009996422C1F5006042434FF40063D20A28
:100B8800CDE90403CDE9023106922046CDE90057AC
:100B9800064AA6F14003082106F0C6FB284613B012
:100BA800F0BD00BF401A0020150C000899A30008EA
:100BB80010B5044603F03EFB034A034608212046CD
:100BC80006F0B2FB002010BDE2A3000837B51346BB
:100BD80000220192054601AA58680A2101F0CCFBBF
:100BE800019C4CB920EAE0700A2180FB010104F065
:100BF80085FB204603B030BD2346034A0121284621
:100C080006F092FB019CF4E7F8A30008F0B504464F
:100C1800D0F89C6089B00D4607A907F0EAFD0346A5
:100C280030B1104A0821284606F07EFB09B0F0BD15
:100C3800204607F0CEFD0C4F079A002818BF07463C
:100C4800B11A6423CDE902214B43CDE90076B3FB09
:100C5800F6F3064ACDE9046308212346284606F040
:100C680063FBE3E735A30008E3A2000818A4000823
:100C78002DE9F04387B00546684603F0A5FB009EC2
:100C8800184A194FDFF86480DFF86490142303FBD7
:100C980000660821284606F047FB009CB44203D3AF
:100CA800002007B0BDE8F08323680BB11A7832B989
:100CB80023463A46142101A804F066FD01AB4246DA
:100CC8000821284606F030FB204607F061FD094B55
:100CD800094A002808BF4B460821284606F024FB8D
:100CE8001434DBE73AA5000844A5000849A5000824
:100CF80031A500082BA5000898AB00088B1E022B15
:100D08002DE9F04107468846144637D86068102216
:100D1800002104F0D5FDB8F1020F064607D1264A96
:100D280020230821384606F0FFFA336816E00A2225
:100D38000021A06804F0C4FDC5B21F4A2B46082153
:100D4800384606F0F1FAB8F1040F1AD0102D0DD07C
:100D5800202DEAD0082D0CD13378DBB2174A0821B0
:100D6800384606F0E1FA0020BDE8F08133889BB2EE
:100D7800F4E7134A0821384606F0D6FA6FF0150052
:100D8800F2E7E0681022002104F09AFD0D4A0346BC
:100D980004460821384606F0C7FA102D06D0202D43
:100DA80007D0082DE5D1E4B23470DCE7A4B2348072
:100DB800D9E73460D7E700BF82A50008ADA50008D1
:100DC80097A50008BEA500082DE9F04F584BDFF89D
:100DD80064A191464FF0FF35012285B00746884649
:100DE8001A6020262C46494652464046FFF7FEFC2C
:100DF800411C07D16A1C52D14F4A0121384606F0DE
:100E080093FA1DE0732820D0772833D0612817D1B2
:100E1800DFF828B11022DBF80000002104F050FDB3
:100E280005460028DFD108F0CDF9454B1B58162B95
:100E3800D9D1DBF80030434A0121384606F074FA6C
:100E48006FF0150005B0BDE8F08FDFF8F0B00022B4
:100E5800DBF80000114604F033FD04460028C2D137
:100E680008F0B0F9364B1B58162BBCD1DBF8003014
:100E7800354AE1E7DFF8C4B00022DBF8000011468C
:100E880004F01EFD06460028ADD108F09BF92C4B56
:100E98001B58162BA7D1DBF800302C4ACCE7631C73
:100EA80001D12B4AA9E75FFA86F8C6F3C406002CDD
:100EB8003CD06B4629461A46A6EB050C0CE0B8F167
:100EC800100F1DD0B8F1200F20D0B8F1080F2AD18B
:100ED8000878187031443344A64203D80CEB01005B
:100EE8001028ECD9102CA14628BF4FF0100929462C
:100EF8004B46384601F034F81035A4EB0904D6E720
:100F0800088880B21870000A5870E3E708681870FB
:100F18004FEA102E83F801E04FEA104E000E83F8D6
:100F280002E0D870D6E70B4A082167E7204689E730
:100F38001C0000200CA6000813A6000800050020CD
:100F48000C000000D2A50008E5A50008F8A50008D7
:100F580030A6000897A5000870B5104E04463378EF
:100F68000D4681B12BB1BDE870400D4A012106F054
:100F7800DBB9012333700B4A0821204606F0D4F967
:100F88000123337004E083F001033370002BF2D1A6
:100F980029462046BDE8704006F0EBB98C090020D0
:100FA8004AA6000885A6000870B504463C480378A0
:100FB800182B02D10B78112B31D0013A0B468D1822
:100FC800AB4225D18B5C0A780370A2F13003092B60
:100FD800344C04D922F02003413B052B04D8236864
:100FE8003149CA54013323602368022B34D11022BB
:100FF8002D48002104F064FC2C4A136803F8010B07
:1010080013602B4A1368013313600023236023E025
:1010180013F8016B182ED3D11E78112ED0D1244D80
:10102800244A2B680821204606F07EF92046002134
:10103800FFF792FF204B187870B9204A2B68116887
:10104800042B0ADC08B111602B6013F003010BD1EB
:10105800126813681BBA136070BD086800BA41F8BB
:10106800040B043B0120EBE75B4203F0030358BF8A
:101078005942022904D1126813885BBA9BB2EAE785
:101088000329E9D1106802681104C2F3074301F487
:101098007F010B4302F47F4213430360DCE700BF88
:1010A8008D0900200C0500208F090020180500205C
:1010B80010050020AFA600088E09002014050020A6
:1010C8002DE9F84F0C462B49DFF8AC80DFF8AC90DF
:1010D800DFF8ACB000230B602A4988F800300646D8
:1010E8000B601546012C2F4655F804AF1ED9022275
:1010F8004946504607F0C9FE80B99AF80220003ADE
:1011080018BF0122924420490222504607F0BDFE32
:1011180030B9012388F80030013CE3E70022F1E709
:1011280049465046FFF70EFAA8B90437002211467F
:10113800786804F055FB154B002211461860786852
:1011480004F04EFB124B134918603046FFF704FFBA
:101158000020BDE8F88F9AF800202D2AE6D19AF8E9
:101168000120002AE2D053465A460821304606F0AC
:10117800DBF8D1E70C0500208E090020C9A600087D
:10118800CFA6000810050020CCA6000818050020EE
:1011980014050020B10F000813B5094807F0F8FA44
:1011A80058B1084A064912680748002400940123E8
:1011B80000F0BAFD204602B010BD6FF01200FAE749
:1011C80048930008209B0008A096000810B54468C2
:1011D800C4E90012A36042684023D364114B13632F
:1011E80000230821C2E90E33C2E91133C2E90633EC
:1011F800C2E90933D16214680B495363136411615E
:1012080053611362C2F88830A36823B19B6C13B191
:10121800064920469847A3689B6A0BB12046984721
:10122800002010BD484E0020404E0020C17000082C
:1012380010B581680446083101F076FBA168034ABD
:1012480020460831BDE8104001F014BB3EA8000854
:1012580038B58368D3F86432DB0704461AD440688B
:1012680003685B689847054620B9E06806F0FDFB0F
:10127800A3681D71A3685B6B13B129462046984784
:10128800A36807F09FFF0022C3F80C23034B1858EC
:1012980001F042FF6FF00F05ECE700BF0800000007
:1012A800014905F0BDBF00BF97A30008F7B5044684
:1012B8008068D0F864325A070D4605D5002105F03C
:1012C800D3FFE06806F0A3FBE368DB6873B9002D81
:1012D80039D0A66806F14207384605F09BFF00287A
:1012E80033D0394606F5A170FFF736F9A268E068F1
:1012F8000DF106034232294606F08CFB58B9A06866
:1013080000F5A1714230FFF727F9A068423005F0D7
:1013180081FFADF80600204606F09DF9A368D3F8D2
:1013280060329B0603D50A49606905F079FF2046BB
:1013380001F0C6F8A268BDF80630D387A268204637
:10134800938706F032F903B0F0BD86F84201CDE785
:10135800109700082DE9F04F9FB004463422002171
:1013680011A807F01FFF0023CDE90533A368204625
:101378004233029306F075F9204606F0FFF810B9DB
:101388006069FFF78DFFA06814220021083007F07C
:1013980009FF204600F0B8FFA168E0688A8F423153
:1013A800002606F06EFB204606F0EDFB4FF0FF37F7
:1013B800B24603960DF14408B3463546B146DDE919
:1013C8000532012A6CD00B2B6DD857BBBBF1000F2F
:1013D80009D0204606F0F7FBA2680C23423211A977
:1013E80005A800F045FEB9F1000F0CD099F81130AE
:1013F800FE2B08D1059B1EAA02EB830252F8342C5F
:101408000AB101330593A068059D4369002B40F09C
:10141800B680CEB1C3689E422DD00D9600F1080566
:1014280024E0029A0223414606A800F021FE06990C
:10143800D8F804200292034631B101290AD148B1F3
:101448006C4A204606F0B5F96FF0070528461FB02C
:10145800BDE8F08F059B002B34D0D8F8000001F0D0
:1014680083FA98B166B1A5680D9608350CAE0FCE13
:101478000FC533682B602046FFF7DAFE0125E5E744
:101488005D4A0121204606F094F9DDE7059BCBB1C2
:10149800D8F800202946204601F018FC022809D176
:1014A800059B0B2B92D9069B022B8FD1534B544A89
:1014B8000121C6E7032805D0059B013305934FF0AA
:1014C800010B7CE7039B33B9D8F8001007AA4846FC
:1014D80005F0DCFF054608F10408013F9DB3EB6801
:1014E800BBF1000F08D0F3B1204606F0BAF8204649
:1014F80006F05BF8434AC4E7ABB1A368DDF814A073
:10150800AE4603F1080CBEE80F00ACE80F00DEF8A9
:101518000030CCF80030AB682BB96B7CFE2B04BFD5
:101528002F7C07F1FF37D5F804C0BCF1000F08D0B5
:10153800AE46BEE80F000CAE0FC6DEF800303360D2
:101548006646A94603E0059B53B101230393069B16
:1015580017B9022B7FF433AF059B013305932EE7B0
:10156800A368DB6913B1DB68002BEED1264B00932F
:10157800264A119B0121204606F01BF9E5E7037E68
:10158800A5EB0A05B3B1417E4FF6FF72FF2918BFDC
:101598000A469D4202D313449D420BD983681C4AD4
:1015A8000121204606F005F92046FFF741FE6FF0BD
:1015B80015054BE7012105F04CFEA06800F53E70CB
:1015C80005F06BFEA36811AA294602EB8A025B6943
:1015D800204698470546A0684FF0FF324FF0FF338A
:1015E80000F53E7005F029FEA068002105F031FEE7
:1015F8002CE700BF4CA8000860A80008C1A8000894
:1016080066A200087EA80008ADA80008B0AB0008D4
:10161800E5A8000810B5836802221A7183689B6BDD
:101628000446BBB905F0B9FD8368D3F86432DB041E
:101638000BD50321084B094A06F0BBF8A0686FF4E4
:10164800805100F5197005F0C0FD2046BDE8104036
:1016580001F080B810BD00BF00A900084BA5000824
:101668002DE9F04F04468068A9B0012100F51970F2
:1016780005F09CFDA3681B79022B20D10023099358
:10168800A36860689E6B03681D6909AB0EB31022DE
:101698001BA9A847099B93B1A068012105F0D9FDB2
:1016A800099A1BA92046B047A068002105F0D1FD82
:1016B800A3689B6B002BE3D12046FFF7ABFFA06824
:1016C8006FF0010100F5197029B0BDE8F04F05F081
:1016D8007CBD01220DF12301A847099B002BEED008
:1016E8009DF923109DF82330A2680029C8DB5179A1
:1016F800032900F20A83DFE811F004008902A1023D
:1017080008030D2B55D00A2B32D0B2F864126FF3B0
:10171800CA01A2F86412092BA0685FD013D8002B65
:10172800AED0082B00F0D7815A1C8949A068D2B2E4
:101738008A5C12F0970F00F0DA81012105F094FD20
:101748009DF82310FAE01B2B45D07F2BECD1D0F865
:1017580060329D0794D5012105F086FDA368D3F872
:101768006032190700F1BF81204606F064F887E768
:10177800D2F86412C1F3C70129B1D2F86412C1F3D7
:10178800C7010A29D0D1B2F8641263F3CA01A2F8DA
:101798006412A568A98FC1B9284605F065FDE068FF
:1017A80006F035F96069FFF77BFD2046FFF732FF49
:1017B80066E7D2F86412C1F3C7010029E3D0D2F872
:1017C8006412C1F3C7010D29DCE72046FFF7C2FD0B
:1017D800C5F81003E9E70123437151E7D0F86032F7
:1017E8009A077FF54DAF012105F03EFDA068838F74
:1017F800FF2B3FF445AFC28F00F1420100F5A17005
:1018080007F0A8FCA368DA8F1344002583F8425137
:10181800A2681BA90C2302F5A1720BA800F028FCF2
:101828000B990C293FF62CAF28AB03EB8103DFF8AB
:1018380024A143F8345CA368DA8F134493F8413049
:101848001AF8033019B11B0752D401294FD10025CA
:101858000A950A9B28AA02EB8303002653F834BC96
:10186800584605F0D7FC374681460496B04616AA76
:101878004146284600F0D8FC0346002844D1012EF2
:10188800D4F8088068D10A9B28AA02EB830353F88E
:10189800340C05F0BFFC08F1080206463946284614
:1018A80000F0C2FC0568284605F0B4FC864205D065
:1018B800821B92B2A919204605F0BBFFA068C38F0E
:1018C800034493F842301AF8031011F0080139D193
:1018D800D0F86032DF0730D505F0D0FC2021204653
:1018E80000F002FFA068012105F0C8FCC8E6013934
:1018F80000200CAB009301900AAB1BAA05F0F1FD88
:1019080005460028A5D1BBE61B6803934A465946FD
:10191800184607F0BAFA68B9039B1846FEF724FE82
:10192800049B834238BF03469BB2002E08BF47463C
:101938000493013608F1010899E72021204600F0B8
:10194800D3FE9DE60121204605F061FE98E600BF22
:10195800ABB20008ACB2000805907FF691AE0A9AC7
:1019680028AB03EB8202B94652F8343C039318467D
:1019780005F050FC059B0690A8F830300596A26843
:1019880049460832284600F04FFC039BD0F800B0C7
:1019980009F101094BB1BBF1000F06D0069A1946AF
:1019A800584607F072FA0028E9D1D4F808A0BBF12C
:1019B800000F4ED1AAF830B0059B013B0593DED14C
:1019C8006069FFF76DFC204600F0C4FE0A9B28AA58
:1019D80002EB830307F1010953F8340C05F01AFCF4
:1019E800394611AA8046284600F01EFC0746A06822
:1019F8003968FF2200F5A17007F059FA3B68039394
:101A08004FF6FF77BA4616AA4946284609F1010B50
:101A180000F00AFC002852D0A168036801F24111C5
:101A2800002211F801EF985C704503D110B1013222
:101A38005245F6D1B8F1000F01D0424507DBBA4252
:101A480006F1FF36A8BF3A46012E97B237D0D946DD
:101A5800D9E7AF4805F0DEFB049B00EB0308BAF8B2
:101A68002A301FFA88F81B1A584693FBF8F39BB2E2
:101A7800079305F0CFFBBAF83010079BB1FBF3F2E0
:101A8800A8EB0008481C03FB121189B21FFA88F85A
:101A9800AAF8300061B99E4B9E4ACDF800B00621E5
:101AA800204605F086FE4146204600F0B7FC83E755
:101AB800994A5B460621204605F07BFEF3E7002F96
:101AC8003FF4DEAD0399A7EB080292B241442046E9
:101AD80005F0AFFED4E5D0F860329E077FF5D0ADB3
:101AE800012105F0C1FB204605F0C0FEC8E5D0F88D
:101AF800602292077FF5C4AD013B162B3FF6C0ADBF
:101B080001A252F823F000BFE51C00086D1B000875
:101B1800751B000871170008D91C0008931B0008E2
:101B28008916000889160008891600088916000811
:101B38009B1B0008A31B000889160008CD1B000882
:101B480089160008D71B000889160008891600089E
:101B58008916000889160008DB1B0008891600088A
:101B6800051C0008204605F083FD89E5204605F0A0
:101B780078FD204605F002FD10B96069FFF790FB7B
:101B8800A068012105F070FB0FE6204605F078FDFE
:101B980076E5204605F07DFD72E5D0F860329F06B7
:101BA80003D55E49606905F03BFBA368D3F8603252
:101BB8009E0603D55A49606905F032FB204600F0BD
:101BC800C9FD5DE500212046FFF770FB58E50121BE
:101BD800F9E7204605F03FFD204605F0DEFA012131
:101BE800A06805F041FBA368D3F860329D067FF535
:101BF80047AD4C49606905F013FB41E5204600F00C
:101C0800D9FCA068012105F02FFB39E55B2B02D137
:101C18000223537134E5D2F86022900706D5622B6F
:101C280008D14FF0FF31204600F00EFCA3680022D7
:101C38005A7125E5662BF9D10121F4E7002151718C
:101C4800A268D2F8601289077FF51AAD313B1B2BC9
:101C58003FF616AD01A151F823F000BFE11C0008C2
:101C6800ED1C0008011D0008D51C00088916000895
:101C780089160008891600088916000889160008C0
:101C880089160008891600088916000889160008B0
:101C9800891600088916000889160008D71B00084D
:101CA800CD1B0008931B00086D1B0008891600084F
:101CB800D91C000889160008E51C000889160008C8
:101CC8008916000889160008F11C000803235371BF
:101CD800204605F0C6FCD3E403235371204605F0E3
:101CE800BAFCCDE403235371A068D0F8601201F068
:101CF800010181F00101F7E503235371A368D3F8CB
:101D080060329B077FF5BCAC2EE5002381E700BF5E
:101D180010AB000844A900084BA500081597000857
:101D28001A970008109700082DE9F04304468068C8
:101D38008846D0F80C1389B015461F46002967D18C
:101D48004FF4457207F02EFAA36822681A60E0681B
:101D580005F0FFFEA06800F53E7006F063FD4FF445
:101D68002A794FF41A76A068304407F05CF8A06826
:101D78000022831901214844103607F02AF8B6F5E5
:101D88002A7F09F11409EED1A36900261E60A06814
:101D9800022100F5197005F009FAA36850225A8546
:101DA800A36818221A85D4F80890D9F8000005F01D
:101DB80031FA89F82C00A368174A66F38205C3F83C
:101DC80060526068036841461D682346A847054677
:101DD800D0B9A36801221A71D4E9090100220023AD
:101DE800CDE906230E230393109B0495CDE90173D7
:101DF80000940A4B4FF4805202F00CFDA368C3F81C
:101E08000C03216A02F03EFC284609B0BDE8F083C5
:101E18006FF07705F8E700BF477200087D1E0008DD
:101E280010B5044680680379012B1DD14FF0FF32AD
:101E38004FF0FF3300F53E7005F0FFF9204608210A
:101E480000F07AFB206805F0E5F918B108496069E7
:101E580005F0E6F92046FFF7DDFBA06800F53E70C7
:101E680005F01BFA002010BD6FF08500FBE700BFEE
:101E780096A30008F8B504464068036800219B68EB
:101E8800984700283FD12046FFF7CAFF00283AD1DB
:101E98001D4E1E4FA06800F52A704FF0FF324FF01C
:101EA800FF33032103F0B4FB0546A0684FF0FF326F
:101EB8004FF0FF3300F53E7075B105F0BEF92046CE
:101EC8002B46134A012105F074FCA068BDE8F840D0
:101ED80000F53E7005F0E1B905F0AFF93246022190
:101EE800204605F081F920463A46294605F07CF956
:101EF800606803685B6903B19847A06800F53E70A5
:101F080005F0CBF9C6E7F8BD5912000869160008B4
:101F18004AA9000810B50D4A0446082105F004FA3C
:101F280020460B4A082105F0FFF92046094A0821F6
:101F380005F0FAF92046084A082105F0F5F9204687
:101F4800064A002100F096FC002010BD61A9000897
:101F58009FA90008FEA9000852AA0008ECAA0008D8
:101F6800F8B51E4617460B462F4A0821044605F0C9
:101F7800DBF96EB33B782D4A0821204605F0D4F9E9
:101F880001256A0704D12A4A0821204605F0CCF920
:101F9800AE4223D97B5D254A0821204605F0C4F9C5
:101FA8000135102DEDD1234A0821204605F0BCF952
:101FB800D6B91F4A0821204605F0B6F90125AE42D8
:101FC8002B4613D81A4A0821204605F0ADF919E026
:101FD800194A0821204605F0A7F90125164A0821C3
:101FE800204605F0A1F9DBE700252B46FB5C134AE8
:101FF800D25C12F0970F08BF2E23114A0821204601
:1020080005F092F90135102D07D06B07D7D1084A92
:102018000821204605F088F9D1E72046094ABDE89D
:10202800F840082105F080B902AB000809AB0008A8
:1020380011AB000813AB00080FAB0008ACB20008E6
:1020480035AB000815AB000810B5044613460A4620
:102058000146064801F0B2FA23691B7923B12046EC
:10206800BDE8104005F08BB910BD00BF9F73000894
:102078002DE9F04F85B00026DFF8A8A101910746A9
:10208800144699460660B3462378002B00F0C680B4
:102098001AF8033013F0080304D004F801BBF3E77F
:1020A8000026F1E73A68511C3960019941F822404D
:1020B8003A684A4500F0B2801E4621780029E3D0EC
:1020C800A6B90E4623461C46272E04D05C2E20D0E7
:1020D800222E40F09780204605F07BF9611C0246CD
:1020E800204607F045F821780029CDD0B142A04616
:1020F80004F101041BD1404605F06BF92146024664
:10210800404607F035F898F800604446002ED9D1CB
:10211800BAE7204605F05DF9651C024629462046C7
:1021280007F026F866782C46002ECDD1ACE75C295E
:1021380098F80110D8D1B1428C4608D1404605F034
:1021480048F921460246404607F012F8B5E730291B
:1021580025D10025022218F802C0ACF13000C0B227
:10216800072819D8ED000132EDB2052A45EA000525
:10217800F1D1511E414440460392029105F029F9DC
:10218800039A0299023A821A404606F0F1FF98F83B
:10219800011088F80050A7E7D2B2022AE9D1BCF1B1
:1021A800780F2AD10025022018F80020A2F1300C5F
:1021B8005FFA8CFCBCF1090F09D82D01EDB24CEA8D
:1021C8000505022801D00422D3E70320ECE7A2F199
:1021D800610CBCF1050F05D82D01EDB2573A154336
:1021E800EDB2EEE7A2F1410CBCF1050F03D82D01C9
:1021F800EDB2373AF3E7022802D108F1010473E798
:102208000322B6E71AF806301B073FF549AF667890
:10221800631C002E7FF457AF1C4635E7304605B0E7
:10222800BDE8F08FACB2000838B50B46154648B982
:102238001449154A521AB3EB920F05D251F823509C
:10224800284638BD84680CB90025F9E70F4A94423E
:102258000AD30F4A944207D2184622682946904763
:102268002B68002BECD1EFE70A4A944202D30A4AC2
:10227800944205D3246814225343E518E358F0E741
:102288000133F8E7CC960008F49600080897000890
:1022980008970008F4960008089700082DE9F84305
:1022A800074648B105F095F80025DFF85890044630
:1022B8002E46631E9D4201DBBDE8F88328460135A2
:1022C8003B5C19F803301B07ADB2F2D529468BB237
:1022D800A342EED27B5C19F8038018F0080803D0FB
:1022E80001360131B6B2F2E7002EE2D08AB2A21A64
:1022F8000130A41B01323944384406F039FFA4B236
:102308004646D6E7ACB20008F8B5846894F842307F
:10231800054653B9AB689A8FDA87F8BD013A92B28D
:10232800A2872AB984F84220F4E7124E04F1420049
:10233800A28F831813F8013CF35C13F00803EDD166
:1023480083549AB210FA83F110F802C016F80CC040
:102358001CF0080F1F4603F10103F2D1BFB2002F92
:10236800D8D0A68F731C9A1AF61B06F001FFA68711
:10237800D0E700BFACB20008F7B5164602780023D4
:102388002D2A0446019305D16FF015033360002010
:1023980003B0F0BD06F016FF0B4F0546C3510A46C1
:1023A800204601A903F08CFAEB59222B02D16FF0D9
:1023B8002103EBE7002BE7D1019BA342E4D01B7874
:1023C800002BE5D0E0E700BF0C0000008368D3F8DD
:1023D80060329B0603D50249406905F0B0B87047E2
:1023E80020970008014905F0AAB800BF97A3000884
:1023F8000A1E0DDC0ED042238168D1F860128906CE
:1024080008D5002A04494069B8BF524205F097B878
:102418004123F1E7704700BF31AB00080A1E0DDC0D
:102428000ED044238168D1F86012890608D5002AA5
:1024380004494069B8BF524205F081B84323F1E727
:10244800704700BF31AB00082DE9F0410C1E06466D
:1024580031DA644224B24FF0FF35DFF86080A4B26D
:10246800AFB212E0B368DA8F03F1420C9B8F1146CA
:10247800002071B9B5F1FF3F00D073B9891A09B2CC
:10248800304605F0C4F8013CA4B2002CEAD1BDE8FE
:10249800F0818B4201D1012DF0D01CF801E018F831
:1024A8000EE01EF0070F04D10028E7D1394489B2A5
:1024B800DFE70120FAE70125CFE700BFACB200084B
:1024C8002DE9F0478568DFF86890044605F1420079
:1024D800FEF74AF8002395F82C7086B29846A26851
:1024E800558DED1BB54209DB002E1FDD42336069B7
:1024F8001049BDE8F0471A4405F021B81D442A44A4
:10250800423392F842A082F84280A26860691A4475
:10251800494605F014F8A3682B4483F842A0A36841
:102528005B8DDB1BF61A00272B46D8E7BDE8F08742
:1025380066A200084BA5000808290A4617D8836830
:1025480093F82E10914212D083F82E208368082A1F
:10255800D3F8603205D0990609D50549406904F0D9
:10256800EEBF9B0603D50349406904F0E8BF7047F6
:1025780038AB00082597000838B50D460978044699
:10258800FFF7DAFF6A78072A11D8A36893F82F10A3
:1025980091420CD083F82F20A368D3F860329B06B1
:1025A80005D560690249BDE8384004F0C8BF38BDA8
:1025B80041AB0008F8B583689A8F0446002A51D0C9
:1025C800D98F00294ED0413103F142050B441846FA
:1025D800A84206D3014611F80169202E39D0A84235
:1025E80039D286B29DB2AB1B9BB2591C471CD21A7A
:1025F8000144384606F0BCFDA268938F711B13FA9C
:1026080081F39387A3689A8F1344002283F84220AA
:1026180009B2204604F0FBFFA368D3F860329A069B
:1026280003D51149606904F08AFF3B460F4A082127
:10263800204605F0BEF82046FFF7C8FEA368D3F889
:1026480060329B060ED560690949BDE8F84004F080
:1026580076BF0846BCE7014611F80169202EC0D0B4
:102668000846BCE7F8BD00BF2A9700084BA500083C
:102678002E9700082DE9F04104460D4617460AB189
:10268800FFF7A4FEA368DA8FD3F86012423213442E
:102698004A071FD51846FDF767FFDFF8448006464E
:1026A80096B9A3689A8FDA87A06804F055FF20B11D
:1026B80007B115B16069FFF795FE6942204609B276
:1026C800BDE8F04104F0A3BF6069414604F037FF5C
:1026D800013EE5E7034A0821204605F06AF8E0E7ED
:1026E800E1A200084BA5000813B583688DF8071010
:1026F800D3F860220446D00722D5D98F9A8F8A4210
:102708001ED0481CD8870B449DF8072083F8422028
:10271800A368D3F86012890710D5D3F860326069CE
:102728000B4913F0040F18BF2A2204F008FF2046B3
:1027380004F024FF10B16069FFF754FE02B010BD29
:1027480001220DF10701204605F040F8F6E700BF29
:1027580035AB000810B58368094A1B680446022196
:1027680005F027F8A368D3F860329B0707D5204601
:10277800FFF7A6FE2046BDE8104004F025BF10BDB7
:102788004BA50008014905F082B800BF97A30008CF
:102798002DE9F047054690460E46002965D0DFF83A
:1027A800D0900024335D19F803301A071ED4304640
:1027B800FDF7DAFEAB685A8D80B2001BA2EB080366
:1027C800984206EB040A13D95146002711F8010B69
:1027D80019F800C01CF0080F02D00A282DD03B467B
:1027E80008EB0700824227D90137EFE70134D9E720
:1027F80053460027B84214D013F8012B0A2A19D1DE
:10280800686904F0BCFD51463A46284604F066FF64
:102818006869FFF7B7FF0134414628463C44FFF793
:10282800FDFD6869311905F032F86869BDE8F047BF
:10283800FFF7A8BF0137DDE71F46686904F09FFD71
:102848003A465146284604F049FF3C44335D19F89E
:1028580003301B0707D46869FFF794FF41462846F1
:10286800FFF7DCFDA3E70134F0E7BDE8F08700BF20
:10287800ACB200082DE9F04F0E46002189B004469D
:1028880017460D4603AA304601F10108FFF7CCFCB4
:10289800B0B995B127B13A460821204604F089FF1E
:1028A8001E4FDFF87C90DFF87CA0002103AA304699
:1028B80001F10108FFF7B8FC60B909B0BDE8F08F75
:1028C800006810B1FDF750FE80B2854238BF05465A
:1028D8004146D7E703688BB11A787AB1D0F804B0CB
:1028E8004A46CDE9005308213B46204604F061FFE3
:1028F800BBF1000F04D16069FFF744FF4146D5E7FB
:10290800524620463B46082104F053FF6A1D92B206
:1029180059462046FFF73CFFF0E700BF63AB0008CD
:102928004AAB000851AB0008F7B50F6805460E46DC
:10293800A7B13846FDF718FE84B2094B0093284624
:10294800084A3B46082104F034FFE21C716892B241
:10295800284603B0BDE8F040FFF71ABF3C46ECE755
:102968005FAB000845A9000810B507490446FDF704
:10297800E9FD38B105492046FDF7E4FDB0FA80F0DD
:10298800400910BD0120FCE755AB000858AB000812
:1029980010B58368D3F860329B06044603D5064910
:1029A800406904F087FFA36850225A85A36818225B
:1029B8001A85002010BD00BF3297000808B583694A
:1029C800034A1B68082104F0AFFC002008BD00BFC3
:1029D80066AB00082DE9F3410F4A104C104EDFF8A2
:1029E80044800821054604F09FFC0023B44203F10B
:1029F800010703D3002002B0BDE8F0812A6A0192E2
:102A0800A268126800929BB242460821284604F048
:102A18008BFC2C343B46E9E776AB0008A09600080F
:102A2800CC9600088EAB000808B5024904F089FC72
:102A3800002008BD98A300087FB50F4E0446002566
:102A4800A268E0680DF10E0302F5A172012104F0FD
:102A5800E1FFBDF80E00A36850B103F5A173009320
:102A680032462B460821204604F05EFC0135E7E794
:102A780083F8420104B070BD9FAB000810B504464E
:102A880004F06FFC034A03460821204604F04CFC7E
:102A9800002010BDC5A60008022907B50DD153684E
:102AA80001930E4B009313680D4A012104F03CFC7E
:102AB8006FF0150003B05DF804FB8368094AD3F88A
:102AC800603213F0020F4FF00801074B08BF13469E
:102AD800064A04F029FC0020ECE700BFB6AB00086A
:102AE800ADAB0008A9AB00080FA50008CBAB0008E8
:102AF80010B58368D3F860329A06044603D50749AF
:102B0800406904F0D7FEA368D3F860329B0603D56A
:102B18000349606904F0CEFE002010BD3997000813
:102B28003E970008F0B5012985B004460CD05368DB
:102B38000193604B009313685F4A012104F0F4FB92
:102B48006FF0150005B0F0BD8368D3F860329906C0
:102B580003D55A49406904F0ADFE6FF0F9012046EB
:102B6800FFF746FCFA212046FFF758FCA06800252D
:102B78004FF48072294600F5A1708DF80B5006F0CD
:102B880011FB4F49606904F095FE606904F0F7FB9A
:102B98004FF47A766068036801221F690DF10B0112
:102BA80003ABB847039BF3B9013E4FF47A70B6B252
:102BB80001F0F2FB002EEDD1A368D3F860329B063A
:102BC80003D54049606904F075FEA36850225A8510
:102BD800A36818221A8520463B4A032104F0A4FB67
:102BE8006FF00700AEE79DF80B20A3681B2A53D0AF
:102BF80093F842111B29CDD1522A4DD15A190023DD
:102C080082F84231A66896F843215B2A2BD106F256
:102C18004310022510F8011F2A463B2905F101053A
:102C2800ADB223D1FF2AC7D002F5A17216FA82F1FC
:102C3800002211F8010F18BB86F84201FA2AA16890
:102C480028BFFA224A85FA2BA26828BFFA231385DF
:102C5800A368D3F860329A0603D51A49606904F06C
:102C680029FE00206EE786F84231A5E703EB8303CF
:102C7800303901EB4301B5F5807F8BB2CAD19BE7B0
:102C8800013502EB8202ADB2303800EB4200B5F5F7
:102C9800807F82B2CDD18FE72B440135ADB2092DAB
:102CA80083F842217FF676AFA368002283F8422199
:102CB80082E700BFB6AB0008ADAB00084497000838
:102CC80016AC000848970008DCAB00082DE9F04F67
:102CD800074689B01546894621B1104604F03FFFE2
:102CE80000285BD1032455E05C463CE029460AF500
:102CF800A17006F0F8F80646002854D0FDF734FC19
:102D080082B2601C01323146304406F031FA224664
:102D18005946304606F01EFA4FF020033355BAF8EC
:102D2800403001331C44AAF8404008F1010800244F
:102D380001994B1C03AA48460193FFF775FA06460A
:102D4800E8B131680022284605F0C4F80028EFD120
:102D5800D6F800B0D7F808A0BBF1000FC4D0584689
:102D6800FDF702FC84B2BAF840302344FF2BBDDDE6
:102D78000E4A2B460321384604F01BFD0124B8F106
:102D8800000F07D0B8682A4600F1400100F5A1708D
:102D980004F055FB204609B0BDE8F08F4FF000085D
:102DA80041460224C5E70224E9E700BFDEB0000877
:102DB80030BFFFF7FDBF00BF124B134A2DE9F041AA
:102DC800D518DFF84880013DB5FBF3F55D43104B9E
:102DD80008EB0304013CB4FBF3F403FB04540E1B9F
:102DE80007460C49304606F0B5F9701942460021ED
:102DF800083E06F0D7F9C7F8A86004F10800BDE856
:102E0800F08100BF01000000000000000800000081
:102E18000400000008970008044B99685869884224
:102E280003D003494FF080520A60704750090020D0
:102E380004ED00E070B5264B15469A6A12F0100FA3
:102E48009A6A14BF1124102412F0080F9A6A18BF46
:102E58001224920706460AD5586B9A6A140634D586
:102E680019B19A6A22F080029A62132401E06FF085
:102E78001500174B9A6A12F0010F9A6A18BF1424AA
:102E880012F0200F9A6A18BF1524D20602D49B6A42
:102E98009B070AD50E4B5B68190506D5314600F02D
:102EA80015FA10B180F309880224094B9A6A920630
:102EB80042BF5A6A22F400525A629A6A42F0FF02EA
:102EC8009A6200232B70204670BD6FF01500CCE786
:102ED80000ED00E0134B9A6A12F0007F9A6A14BF63
:102EE8001E201D2012F0807F9A6A18BF1F2012F43E
:102EF800002F9A6A18BF212012F4802F9A6A18BFEF
:102F0800222012F4003F9A6A18BF232012F4803F4F
:102F18009A6A6FEA02426FEA12429A6218BF242044
:102F2800704700BF00ED00E010B5194B0246986AE3
:102F38009C6A10F4805F14BF1720162014F4006FE9
:102F48009C6A18BF1820A40509D5986B986A0004D4
:102F580004D51AB19A6A22F400429A6219200C4BDD
:102F68009A6A12F4806F9A6A18BF1A20D2050CD494
:102F78009B6A13F4005F18BF1C20054A936A43F448
:102F88007F43936200230B7010BD1B20F5E700BF41
:102F980000ED00E0F0B5484B5B688BB00446C3F326
:102FA8000803002585F31188BFF36F8F02F07F4077
:102FB800B0F17F4F11D102F00C0008280DD0100796
:102FC8004CBF0C4601250022033B8DF80720032B3C
:102FD80005D8DFE803F0246367602C46F3E7002395
:102FE8009DF80720CAB902AE04F12007206861687D
:102FF800324603C20834BC421646F7D1099A002D5E
:1030080054D0C2F3080121B96FEA52226FEA422272
:10301800099202A9184604F0E5FD0BB0F0BD264B55
:10302800DA6A9107DBD4DA6A002AD8DBDA6A520056
:10303800D5D55A69A16942F480725A61BFF34F8F9E
:10304800BFF36F8F5A6931F8021C22F480725A61FB
:10305800BFF34F8FBFF36F8F4DF6027291420AD0C4
:103068009A6AD2B24AB10DF1070201212046FFF750
:10307800E1FE0346B4E72368B2E79A6A12F47F4F89
:1030880005D00DF107010120FFF74EFFF1E79B6A1C
:10309800B3F5803FA3D3FFF71DFFEAE70DF1070261
:1030A8000021E3E70DF107010020EDE722F4FF72AC
:1030B80022F00102ACE700BF00ED00E0024A5369CC
:1030C80043F010035361704700ED00E0EFF3088010
:1030D800EFF3098101B57246FFF75CFF01BD00BF40
:1030E800102080F311880B484FF0AA014FF40462B6
:1030F80005F065FB07484FF40461401880F3098820
:10310800EFF314800221084380F31488BFF36F8F14
:1031180000F09CF8001A0020084B9B6883420BD1F2
:10312800EFF3058343B1064B5A6842F080525A6068
:103138005A6A22F400425A6205F0B0BC50090020D5
:1031480000ED00E00A4A93686FF00A01C3F8B01076
:103158000849C3F8AC004B6843F080534B60002328
:1031680083F31188BFF36F8F9368D3F8B00070476B
:103178005009002000ED00E016498A684FF0300041
:103188001044EFF3098C80E8F01F102080F31288B8
:10319800BFF36F8F104F4FF000664A698A603E6038
:1031A8004FF0A804141920680C4C2060D2F8AC0029
:1031B8000023C2F8AC3080F3118804B5104600F043
:1031C800F9F8BDE8044002F1300090E8F01F8CF3F4
:1031D800098870475009002004ED00E034080020F9
:1031E8001EF0040F0CBFEFF30880EFF3098081692C
:1031F80011F8021C0229FFD001B504F0F5FC01BD4D
:1032080040B2002807DB044A4109012300F01F00EF
:10321800834042F82130704700E100E040B20028C6
:10322800A8BF00F1604001F10101B8BF064B4FEAA9
:103238000111ACBF00F5614000F00F00C9B2B4BF86
:10324800195480F80013704714ED00E00F4A08B5D0
:103258000F4B22F07F029A60BFF34F8FBFF36F8F3F
:10326800D3F8882022F47002C3F88820EFF314837F
:1032780023F0040383F31488BFF36F8F01F006F97A
:1032880002F06CF800F06AF801F056F90000000846
:1032980000ED00E042F8203C009B42F81C3C0A4943
:1032A800019B42F8183C029B42F8143C21F00101B2
:1032B8004FF0807342F8043C42F8081C0023203A7F
:1032C8000265C0F8AC307047710900080A4A034625
:1032D800906878B113F1160FD0F8980005D0A0F1D6
:1032E80040029A4205D8834203D2814228BF002077
:1032F80070470020704700BF5009002008B51446E9
:103308000A4A0B4B9060D0F8A8201A600D4600F0CE
:1033180051F8204685F30988002163B681F31188A6
:10332800BFF36F8F00220023FDF71EFB500900201A
:1033380034080020014910220A60704710ED00E0AF
:1033480072B6404080F31188BFF36F8FBFF34F8F81
:1033580030BF62B6BFF36F8F704700BF04480023C9
:103368001021C2180133662B82F80013F9D1704777
:1033780000E100E001B5EFF30580A0F110004FEA8D
:10338800C0000449014409C99847BDE80140024901
:103398000847000070930008212E0008024B034ADA
:1033A8000348012100F042B80080002000000020FE
:1033B8002C9E0008D0F89820054B403A1A60054A20
:1033C8004021C3E901121846012100F039B800BFB5
:1033D8003808002000000B15084AC2F898000B684E
:1033E80023F01F03034343F01003C2F89C308B689B
:1033F80043F00103C2F8A030704700BF00ED00E0C1
:10340800044B0522C3F89420BFF34F8FBFF36F8F8F
:10341800704700BF00ED00E0BFF35F8F024B002252
:10342800C3F89420704700BF00ED00E010B5034CCE
:103438000123227804F0F7FB207010BDAF090020AB
:1034480008B5094A0023127804F0EDFB10F1160FB5
:1034580003D0064B0022072800DD08BDC3F89800FA
:10346800C3F8A0200130F6E7AF09002000ED00E026
:10347800F0B5454D2C68082C85B000F28280FFF726
:10348800CBFF00200C2684420DD1404D404F2C70BC
:103498006846FDF7B3FA00240646A6420AD1FFF7AC
:1034A800AFFF00201CE0696806FB0011FFF794FFDE
:1034B8000130E8E7009800EB04114FEA041CCB68E0
:1034C8003B40B3F5000F4AD00CD8B3F5001F30D0FD
:1034D800B3F5800F38D0B3F5801F12D06FF0150008
:1034E80005B0F0BDB3F1807F42D0B3F1007FF5D1D4
:1034F80050F80C3088684A6804F085FB40F4802056
:1035080009E050F80C3088684A6804F07CFB40F009
:10351800885040F43020039028780728CDE901230B
:10352800DCD801A9FFF758FF2B7801332B70013441
:10353800B3E750F80C3088684A6804F064FB40F040
:10354800885040F40020E6E750F80C3088684A6854
:1035580004F059FB40F0E06040F40030DBE750F83D
:103568000C3088684A6804F04EFB40F08270D2E75D
:1035780050F80C3088684A6804F045FB40F08870C1
:10358800C9E74FF0FF30ABE7389E0008AF090020CD
:103598000000F0FF08B5024B1B689847002008BDE3
:1035A80044080020034B044A1860937843F0020350
:1035B800937070474408002068000020F0B587B079
:1035C80007460E4614460021102268461D4605F09F
:1035D800E9FD02238DF802302A46054B0193214666
:1035E8006846CDE9047602F06BFA07B0F0BD00BF7B
:1035F8008B7C000808B50649064821F00701C1F18F
:10360800005202F5004203F014FC002008BD00BF80
:103618008F4E0020480800200B0706D5034B1B5C83
:1036280003F00303012B08BF20307047ACB2000839
:103638002DE9F0410F4E104F054600244FF00108C8
:103648002B7853FA84F01F280DDC726908FA00F30E
:1036580033EA020207D1736157F830301BB107EB28
:10366800C002516898476A780134E3B29A42E7D2B7
:10367800BDE8F0810004014054080020044B1844C0
:1036880000230133994200F8012BFADC704700BF90
:10369800D800002010B4064B064902460C6818569C
:1036A8000123934023430B6010BCFFF7A9BD00BF63
:1036B800D8000020000401401F2806DC034901222D
:1036C8000B68824023EA02030B6070470004014044
:1036D80003292AD8DFE801F0020E141F134B012238
:1036E8009968824021EA02019960D96821EA0202B8
:1036F800DA6070470D4B0122996882401143F3E765
:103708000A4B0122D96882401143D960996821EA9D
:1037180002029A607047012303FA00F0034B9A688B
:1037280002439A60DA681043D86070470004014089
:1037380030B50A4B53F830408C4204D103EBC00536
:103748006D68954205D034B943F8301003EBC003D7
:103758005A60002030BD6FF00F00FBE754080020CE
:10376800034B002243F8302003EBC0035A60704734
:103778005408002010B5234B18680B68082B144612
:1037880016D00B2B0BD89BB1013B0A2B10D8DFE8C6
:1037980003F0323634162F32180F1B262600582B0A
:1037A8000FD008D84C2B0CD0502B0AD0482B08D05F
:1037B8006FF0850007E05C2B03D0602BF7E74FF430
:1037C80000402060002010BD00F0DAF80623B0FBAE
:1037D800F3F0552358430723B0FBF3F0F1E700F06B
:1037E800CFF80623B0FBF3F0552358434008E8E729
:1037F8004FF4FA40E5E70020E3E70348E1E7034830
:10380800DFE700BFC400002000366E01006CDC0258
:10381800F8B5564C564F00F0D1F800F021FDA368DA
:10382800544AC3F303131578D35C05F01F0503F05E
:103838001F0320FA03F647FA05F5AE4202D22846DE
:1038480000F044FD236823F480232360236843F4B5
:103858008033236023689803FCD5D4F8943043F070
:103868000103C4F89430D4F894309907FBD5424B3F
:103878001A6842F480721A601A68D205FCD5D4F826
:10388800903043F00103C4F89030D4F890309B078F
:10389800FBD5394A136823F480731360D4F8983041
:1038A80043F00103C4F89830D4F898309807FBD552
:1038B800A36803F00C030C2B18D12368590506D410
:1038C800236843F48073236023685A05FCD5A368F2
:1038D80023F0030343F00103A360A36803F00C0380
:1038E800042BFAD1A36823F0F003A360236823F024
:1038F80080732360E36823F0605323F4003343F0BC
:103908006053E360E36843F48033E360E36823F4DF
:10391800C003E360E36843F48013E36000F034F825
:10392800236843F08073236023689B01FCD5A36858
:1039380023F0F003A360A36843F00303A360A36824
:1039480003F00C030C2BFAD1AE4202D3284600F048
:10395800BDFC0A4B1F60A36823F4E063A360A3685F
:1039680023F46053A3600020F8BD00BF001002409C
:1039780080FE210A0BB2000800700040C40000203D
:103988000048704700366E010A4AD2F8803023F4A6
:103998008073C2F8803002F5D032074BD1680B40F3
:1039A80043F4AA4343F05303D360D36843F08073CE
:1039B800D3607047007000400C80FFF9064B9A6D89
:1039C80042F080529A659B6D82B003F08053019358
:1039D800019B02B0704700BF0010024008B50748BD
:1039E80004F0D6FE38B10648FFF7DCFD0448FCF7C2
:1039F8009DFF002008BD6FF01200FBE74893000808
:103A08000D3A00080A2838B5074D044604D1AB68BA
:103A18000D215B6828469847AB6803485B68E1B2AC
:103A28009847204638BD00BF4893000838B5036959
:103A380004465860084D284604F0AAFE40B1616863
:103A4800AB680C311B682846984700EAE07038BD1F
:103A58006FF01200FBE700BF80920008F7B5174629
:103A6800B7F5001F466802690C461D4628D101F0CB
:103A7800030304339B000F229A4042EA910202F0AA
:103A880003030233354951F82310130C93FAA3F3B7
:103A9800B3FA83F301EA124203F01F0322FA03F395
:103AA800B2689A4209D12046FFF706FE2046FFF782
:103AB80057FE00212046FFF70BFE002003B0F0BDA3
:103AC800B7F5800F44D026492046FFF731FE00287D
:103AD80041D1244AB66892E803006B4683E80300A4
:103AE80021488268194612689047D8B904F0030340
:103AF80004339B000F21994041EA940101F003032C
:103B08009B0003F1804303F580330A0C986892FA0E
:103B1800A2F2B2FA82F202F01F0220EA11419640A4
:103B28000E439E60B5F1806F0ED0B5F1C06F0DD019
:103B380005F17E435942594149002046FFF7C8FD27
:103B48002046FFF7A7FDB8E70121F6E70321F4E7D0
:103B58006FF08500B2E76FF00F00AFE7000001409B
:103B68005D82000808970008809200082DE9F04758
:103B78001E4F044600EBC1060025B44201D10020C7
:103B880014E02068C30600F01F0911D4656845F0E9
:103B98002005C0F3471AC0F343200A2823D857F852
:103BA8002080B8F1000F0DD16FF01200BDE8F0874A
:103BB800B9F1100F04D0B9F1110FEAD16568E8E73F
:103BC8003025E6E7404604F0E3FD0028ECD04B46FC
:103BD8002A460AF00F01404604F053FB002804F17E
:103BE8000804CADAE2E76FF01500DFE7089F00086B
:103BF800012912D0022907D089B90068094BC01AD7
:103C080018BF0120000370470068064B984214BF94
:103C18004FF440504FF400507047002070474FF465
:103C280000507047008000404268116801F10803A5
:103C380053E8003F43F0010301F1080C4CE8003061
:103C48000028F3D113680E498B420BD0A1F57441BB
:103C58008B4207D001F580618B4203D001F580616A
:103C68008B4203D1596841F040015960126852E80B
:103C7800003F43F4807342E800310029F7D17047D0
:103C8800003801404268116801F1080353E8003F19
:103C980023F0010301F1080C4CE800300028F3D1AF
:103CA80013680E498B420BD0A1F574418B4207D0A3
:103CB80001F580618B4203D001F580618B4203D10D
:103CC800596821F040015960126852E8003F23F416
:103CD800807342E800310029F7D17047003801406D
:103CE80070B51D46094B002633F812203346FCF701
:103CF800BFFA090241EA10616C08000220182A463E
:103D0800334641F10001FCF7B3FA70BD2CA100085D
:103D18002DE9F3410369466818688368DB680C4637
:103D2800F168C3B101AA9847002814DB3368244A14
:103D3800934235D1019FDFF88C8000252346AAB233
:103D480038460021FFF7CCFFA0F54070404505D963
:103D580001350C2DF2D102B0BDE8F081184AD36AC2
:103D680023F00F032B43D3623668002CF3D0164B95
:103D780033F81520002319463846FCF779FA09026A
:103D880041EA106163080002C01822464FF00003A0
:103D980041F10001FCF76CFAC0F31300F060DAE7B8
:103DA8001A6822F400421A603268019B002CD2D0B3
:103DB80003EB5403B3FBF4F39BB2D360CBE700BF30
:103DC80000800040FFFC0F002CA100082DE9F843FB
:103DD8000A79036945685F68012A06460C4658D087
:103DE800931ED3F1000848EB03084FEA882861794D
:103DF8002846FFF7FDFE94F80690B9F1020F034636
:103E08004AD0B9F1040F4BD0002A53D0033A012A03
:103E180048D94FF48050B3F5805F4DD0B3F5405F7B
:103E28004CD0002B0CBF0123032399423AD14146C1
:103E380004F087FA814535D1E379ABB1012B3FD145
:103E48002B68214A93420FD0A2F5744293420BD0BB
:103E580002F58062934207D002F58062934203D054
:103E680002F5505293421DD12A68136823F00103CA
:103E780013602146304604F0EFFB2A68136843F0CC
:103E88000103136094E8030087E803000020BDE8FD
:103E9800F8834FF4C068AAE73AB94FF08050BAE700
:103EA800002AB6D06FF08500F1E7033A012AF9D964
:103EB8000020B0E71046AEE70023B6E70223B4E7D8
:103EC800032BBDD0EEE700BF00380140F7B5046909
:103ED800466805465148206004F05AFC18B96FF04E
:103EE800120003B0F0BD2068F16883681B6898472A
:103EF8000028F6DBF06901AA002104F0D7F90028B0
:103F0800EFDB019B002219791868FFF72FFE0028C4
:103F1800E7DB6C682B6922685F68136823F001038C
:103F28001360606804F034FC0028D8D0D4E901019B
:103F38008368DB6803B19847226852E8003F43F082
:103F48000C0342E800310029F7D13946284604F02D
:103F580083FB237D23B12268936843F008039360B1
:103F6800637D23B12268536843F400435360A37D03
:103F780023B12268536843F480335360E37D23B14F
:103F88002268536843F400335360227E2368002A72
:103F98002FD0234A93420FD0A2F5744293420BD0FC
:103FA80002F58062934207D002F58062934203D003
:103FB80002F5505293422DD16B681A68936843F406
:103FC800804393602268617E136823F0787343EA24
:103FD800415313602268A17E136823F4F81343EA5F
:103FE80001431360E37E23B12268936843F40043DE
:103FF80093602268136843F0010313602368DA6949
:104008009102FCD5DA695202FCD52846336A9847F2
:10401800002066E76FF0150063E700BF8092000894
:104028000038014010B54FF0E0230F499C691A6928
:1040380008689B690D4902F4803234B993B9034684
:104048004AB90A681044C01A10BD002B08BF0346BD
:104058000AB9A342F5D90A6802440A604FF0E0227F
:104068001269EEE70446F3E74809002044090020F6
:104078000A4B102283F82320094B44F268221A6065
:10408800084B002018604FF0E02344F267225A6181
:1040980098611A6942F007021A61704700ED00E062
:1040A800480900204409002010B5FFF7BBFF104B5A
:1040B8001049D3E900420868001942F10002C3E937
:1040C80000020D4A00230B60D2E9004144F2682344
:1040D800001BB0FBF3F043431B1941F10001C2E997
:1040E800003101F011FABDE81040FEF795BE00BF9F
:1040F8007002002044090020680200202DE9F041E8
:10410800DFF8E08099B1421C0BD14FF0E02213692F
:1041180023F0010313614FF07F43C8F80030BDE876
:10412800F081D8F80060012807DC00270BE0431C69
:10413800D8F80060F7D140F2D93040F2DA3398422B
:10414800A8BF1846471E4FF01003EFF3118583F3FD
:104158001288BFF36F8FFFF765FF234C4FF0E02302
:104168009969D4E90023801843F10003C4E90003E6
:104178001E4B00221A601E4B1A68831A2ED444F272
:10418800682C0CFB073303F584436733B3FBFCF758
:10419800131A0CFB073340F22642934238BF1346EA
:1041A800144A934228BF13464FF0E022C8F8003063
:1041B800013B90695361002393618142A1EB0003A5
:1041C800D4E9001238BF9B195B1842F10002C4E918
:1041D800003285F31188BFF36F8FA0E740F22643C2
:1041E800E2E700BF480900207002002044090020CF
:1041F800680200202882FF0038B54FF01003EFF363
:10420800118583F31288BFF36F8F084B1C68084B26
:104218001B68E41AFFF706FF85F31188BFF36F8F59
:1042280044F268232044B0FBF3F038BD700200204C
:104238006802002038B54FF01003EFF3118583F3BF
:104248001288BFF36F8F054B1C68FFF7EBFE85F3F1
:104258001188BFF36F8F204438BD00BF7002002063
:10426800174B9A6802F00C02042A23D09A6802F0CD
:104278000C02082A20D09A6802F00C020C2A1DD1E0
:10428800D968DA68D868DB6801F00301C3F34163D1
:104298000329C2F30312C0F3062003F101030CBF84
:1042A800084909495B000132B1FBF2F25043B0FB07
:1042B800F3F0704704487047024870470020704781
:1042C8000010024000366E010024F400254B421E07
:1042D8009A4245D8244B1B6803F4C063B3F5007FAA
:1042E8002BD1224B98422DD8214B98422CD8214BC8
:1042F80098422BD8204B98422AD8204B984229D84C
:104308001F4B984228D81F4B984227D81E4B9842DB
:1043180094BF002001201D4A136823F00F030343B4
:104328001360136803F00F0398421CBF136803F06F
:104338000F03C01A18BF01207047154B98420DD8BB
:10434800144BE4E70820E6E70720E4E70620E2E765
:104358000520E0E70420DEE70320DCE70220DAE7B7
:10436800012070477FFE210A00700040006889091B
:10437800003B5808000E270700E1F50500B4C40407
:1043880000879303005A6202002D31010020024089
:104398000024F40000127A0038B5044678B1FFF71B
:1043A80049FF05460648074AA4FB00010023FBF71E
:1043B8005FFF0446FFF73EFF431BA342FAD338BD15
:1043C80080FE210A40420F00034A044B02609B1AF8
:1043D8001420B3FBF0F07047809200087093000837
:1043E80038B54FF01003EFF3118583F31288BFF34C
:1043F8006F8F064B9C6804F0DFF985F31188BFF3D3
:104408006F8F2046BDE83840FEF786BE5009002071
:10441800104B70B553F82040013053F82060A64285
:1044280000D870BDD4E9003595B153B128469847F6
:1044380038B10028B8BF4042EB68FF28A8BFFF206A
:104448001870EA68537843F0010353700834E6E7BC
:104458009847FBE72CA0000808B50A4B0122032067
:104468001A70FFF7D5FF01F05DF90420FFF7D0FFC0
:1044780000F0FCF9FCF75AF9034A137B23F0010317
:10448800137308BDB00900203003002008B50348A5
:10449800034A0021121A04F092F908BD18010020FD
:1044A800B409002070B51D4E1D4D1E4986B0B823B5
:1044B80003FB00661C4B059301220F23CDE9033251
:1044C8000023CDE90133142303FB005504464FF4C0
:1044D800C070164B00954FF4A07200FB04113046D3
:1044E80000F028F9737B124AEE6023F0040373731B
:1044F8004FF4046304FB033313446B600D4B2C74BB
:10450800BFF35B8F53E8001F013143E80012002A14
:10451800F8D1BFF35B8F06B070BD00BF78020020F2
:1045280050090020402200201BB20008058800081E
:10453800001A00204C09002080B50020B4B0FFF715
:1045480067FF2D4B83F308882C4D2D4E6B692D4F3B
:1045580043F400736B610024F02385F82230EC7774
:104568002C766C76AC7685F820406B6A43F4E023B1
:104578006B62FEF7A3FDFEF7DDFE4FF0FF33AB6283
:10458800EB6206ADFEF774FFFEF708FF40F2011379
:104598002846ADF82430CDE92C4401F0BDF8B560CB
:1045A80004F0F5F80120FFF733FF0220164DFFF75E
:1045B8002FFF00F019FE154B75610593012314496F
:1045C8000094CDE903434FF480623B46CDE90144B2
:1045D800284600F0AFF86A7B064622F00402284617
:1045E8006A7304F0A9F92046FFF75CFF3A463146A2
:1045F8002846FEF783FE00BF4022002000ED00E0C1
:1046080050090020614400083003002020B200084F
:10461800C0230020F8B505460E464FF01003EFF30F
:10462800118783F31288BFF36F8F064B1C6A24B976
:1046380087F31188BFF36F8FF8BD20463146A8472E
:10464800646FF4E7500900204FF01003EFF3118175
:1046580083F31288BFF36F8F094A136A834207D125
:104668005B6F136281F31188BFF36F8F7047134636
:10467800002BF7D05A6F8242F9D1426F5A67F1E79F
:104688005009002010B5044608B9054B9C681F2244
:1046980004F1780004F00BFC002084F8970010BDAA
:1046A800500900202DE9F74F0C46D1B3CAB3477B18
:1046B800DFF87480561E08466FB34FF000094D4668
:1046C8004FF0010A0AFA09FB17EA0B0F1DD0D8F8B8
:1046D8000410721B8A4228BF0A46D8F800100192BB
:1046E80004F038FD019A37EA0B07154404EB05007E
:1046F80011D0A6EB050BBBF1010F28BF4FF0010B42
:104708000A495A4604F026FD5D4409F1010908F1F9
:1047180008086019D6E700230370204603B0BDE8F7
:10472800F08F0348FAE700BF44A0000825B200084C
:1047380098A300082DE9F04F85B0984600F158037A
:10474800C0E916330732129B037322F0070A0423C9
:10475800002601F1400B43730AF14005119B837356
:1047680004465246C0E906660F468660C6730D4485
:104778005846AA21DDF84C9004F014FD294620463D
:10478800FEF71AFB0730109B20F00700C4F8A000C2
:10479800C4E926BA02930F9B01932D1A0E9B00932E
:1047A8002A46434639462046FEF774FD0E9BA3660B
:1047B8000F9BE366109B6665C4F8648023674FF01F
:1047C8001002EFF3118382F31288BFF36F8F104F3B
:1047D8003A6A62673C6283F31188BFF36F8FB9F15D
:1047E800000F11D01F22494604F1780004F05FFB46
:1047F80084F89760BB680BB1D3F8A430C4F8A43030
:10480800284605B0BDE8F08F84F87890F2E700BF3D
:1048180050090020F0B587B000250595109D049536
:104828000F9D03950E9D0295DDE912760D9D01956C
:104838000C9D00950446FFF77DFFB6F1FF3F08BFCA
:10484800B7F1FF3F05D056EA070305D1204600F02F
:104858007DFC204607B0F0BD03493A46334604F1D3
:10486800180000F0DBFDF4E7DB89000870B5224C86
:10487800224D86B02646AE4204F130040AD300F039
:1048880083FC1D4C1E4EAC4220D306B0BDE87040E0
:1048980000F08EBC54F80C3C059354F8103C04937B
:1048A80054F8143C039354F8183C029354F81C3CF5
:1048B800019354F8203C009354E90A2354E90C016D
:1048C800FFF738FF54F8303C5E65D3E7D4E90A2394
:1048D800B3F1FF3F08BFB2F1FF3F05D052EA030131
:1048E800206803D100F032FC3034CCE73146183070
:1048F80000F094FDF8E700BFA0960008A096000815
:10490800DB89000800487047006305032DE9F3417F
:10491800044617461E464FF01003EFF3118883F341
:104928001288BFF36F8FC368334A7BB18068916880
:10493800884219D057EA060318D188F31188BFF3C3
:104948006F8F6FF00F0002B0BDE8F081916891F9A8
:104958000E1021610133E3609368A36088F3118826
:10496800BFF36F8F0020EEE72169F2E791F90E108F
:1049780090F90E309942A8BF19466FF07E02914215
:10498800B8BF11468B422EDD03F044FF0546CDE942
:1049980000761A482246414600F062FB0028E1D022
:1049A8004FF01003EFF3118683F31288BFF36F8F74
:1049B800A068D0B1236821699C420AD04BB193F911
:1049C8000E309942A8BF19466FF07E039942B8BFCE
:1049D800194603F01FFF40B10848314600F0A4FB18
:1049E8006FF00A00AFE70025D1E7002DF4D186F378
:1049F8001188BFF36F8FF3E750090020B109002039
:104A080038B58368044673B31A4A926893422DD125
:104A1800C368012B03D9013BC360002038BD4FF0A8
:104A28001003EFF3118583F31288BFF36F8F0169C9
:104A3800806803F0EFFE204603F0E6FFA06060B157
:104A480090F90E2022610022C0F8B02003F074FF14
:104A58000948294600F068FBDFE7E06085F3118824
:104A6800BFF36F8FD9E76FF01500D7E74FF0FF302E
:104A7800D4E700BF50090020B109002038B504462A
:104A88004FF01003EFF3118583F31288BFF36F8F94
:104A980003F0BAFF50B10022C0F8B02003F04CFF79
:104AA80029460848BDE8384000F03EBBD4E9023248
:104AB8009A4218BF0133A360022104F1100004F0E8
:104AC80097F9EDE7B10900202DE9F04F4A4E85B07E
:104AD80004464FF0FF384FF0FF394FF01003EFF363
:104AE800118783F31288BFF36F8FD4F8B8508DB94C
:104AF800022104F1D00003F09CFE002843D10023DA
:104B0800CDE90089029304F1C00239463B4800F020
:104B180013FCE2E7D4F8BC202B68C4F8B8309542FF
:104B280008BFC4F8BC30D4F8D03043F00203C4F84E
:104B3800D030EB6823F0040343F00103EB606B68AB
:104B480087F31188BFF36F8F284698474FF01003FB
:104B5800EFF3118B83F31288BFF36F8FEB6899071C
:104B680023F0010219D4EA60D4F8D03023F002030C
:104B7800C4F8D0308BF31188BFF36F8FDB05ACD44A
:104B880000F03AFBA9E704F1C805002201212846F4
:104B980003F0A5FF0028F8D1B1E7306823F003033C
:104BA800EB600028E0D00027D0F800A03B460028A2
:104BB800DAD04268954201460CD101689FB9726803
:104BC8003160824200D1716040F8083BFFF756FF20
:104BD80039460023BAF1000F0BD0DAF8002050460E
:104BE8000F469246E3E739607268824208BF7760F1
:104BF800EAE75246F3E700BF74090020B109002034
:104C0800F8B5C3689A0704460F46C3F340062CD488
:104C18005B071AD40B680BB983680B60E368DD0780
:104C280044BFA3683B603D684CBF02260126002DA7
:104C38003AD01F4B9B68AB420AD0D5F8D030D80782
:104C4800C3F3800214D46FF0120600233B6025E002
:104C580003F0B9FDD5F8D0300028F0D1D907C3F357
:104C6800C002F0D552B15B0708D46FF00F06ECE72D
:104C7800002AFAD1C3F3C003002BF6D10023236026
:104C8800D5F8BC3063B9C5E92E44284603F0DCFDED
:104C9800E36843F00403E3603B68A3603046F8BD73
:104CA8001C60C5F8BC40F0E76FF01506CDE700BF03
:104CB800500900200146014803F0EABD080400201D
:104CC800F0B589B004460020C4E92E000E9D04F119
:104CD800C000C4E9300004F1C800C4E932001DB3C3
:104CE8002879002840F2011008BF0120C4F8D0003C
:104CF80000204FF0FF364FF0FF37CDE90330CDE904
:104D08000100CDE90667094B00942046FFF782FDB4
:104D180025B1296811B12046FFF7B4FC204609B037
:104D2800BDE8F04003F057BD0120DFE7D14A000895
:104D3800C3897F2B12D80A4B1B6863B1094B90F9C2
:104D48000E201B689A4209DB437BDB0606D1064B23
:104D5800C31A18BF012303F0010070470023FAE7C4
:104D6800840900208009002078020020044BC01A22
:104D7800044BC0105843044B01221A54704700BF1B
:104D8800E8030020ABAAAAAAB109002070B50E4B0F
:104D98000E4C1E7C06EB460304EBC3040546204676
:104DA80003F0C1FE0A4B002228469A55FFF7C0FFC0
:104DB80048B1084B08491A68013A2046D317BDE89C
:104DC800704000F02BBB70BD50090020E8030020A4
:104DD800B109002084090020754D000838B50D4D33
:104DE8002B4653F8184F9C4200D004B9EC68AB68C6
:104DF80038B95A7BD20604D1A26912B9DA897F2A56
:104E080005D89C4202D02046FFF7C0FF23466B61BD
:104E180038BD00BF5009002070B590F90D20437BC4
:104E2800002A014604DA03F07F03437303F041FDCF
:104E38004B7B154A63F07F0310464B7350F8183FBD
:104E4800D469834208BF002323B9C1E90004216063
:104E5800D1610CE091F90E5093F90E60B5420ED075
:104E6800AE420CDD5868C1E90030016059609068B5
:104E7800431A5842BDE870405841FFF7AFBF9C4203
:104E8800E3D01B68E0E700BF5009002070B490F938
:104E98000D30427B002B29DBD30627D183692BBB3E
:104EA800134962F07F0242730A4652F8184F94423F
:104EB80018BF2346CC6923B9C0E900242060C86123
:104EC8000CE090F90E5093F90E60B5420AD0AE424C
:104ED80008DD5A68C0E900321060586070BC0020D4
:104EE800FFF77CBFA342E7D01B68E4E770BC7047BC
:104EF8005009002008B590F90D20437B002A01468F
:104F080004DA03F07F03437303F0D3FC044B98687F
:104F1800431A58425841BDE80840FFF75FBF00BF39
:104F28005009002070B515461C46064603F0DCFC07
:104F3800B4F1FF3F08BFB5F1FF3F08D02A4623462A
:104F480006F118000249BDE8704000F067BA70BD6C
:104F5800DB8900082DE9F041002A437B0E460CBF8F
:104F680010210821194204460AD10B43DD0903F038
:104F78009F0211D14273082914D00120FFF72EFF98
:104F88001E4B9B68A34232D1EFF305837BBB3046AF
:104F9800BDE8F041FEF7D6B803F01F03437303F0F2
:104FA80088FCE8E7A36813B1204603F08AFC04F103
:104FB800180003F0B8FD04F158074FF00008A56D7C
:104FC800BD4200D035B90120FFF708FF2046FFF7A2
:104FD8003BFBD5E7284603F074FC05F1180003F005
:104FE800A2FDC5F8B0802846FFF750FFE7E786F333
:104FF8001188BFF36F8FBDE8F08100BF5009002012
:1050080038B54FF01003EFF3118583F31288BFF31F
:105018006F8F104B104A9C681068A04206D1FFF7AA
:10502800B5FE85F31188BFF36F8F38BD00211B7C57
:1050380011600A4AD35C002BF3D02046FFF778FEB4
:105048000028EED0637BDB0602D12046FFF7E4FEA2
:105058002046E4E7500900207C090020B10900201F
:1050680070B50C480C4D86682E600C461146DDE97B
:1050780004234FF01006EFF3118586F31288BFF36F
:105088006F8F8068FFF74EFF2046BDE87040FEF73F
:1050980059B800BF500900207C090020F8B5044623
:1050A8004FF01003EFF3118683F31288BFF36F8F6D
:1050B800437BDA0649B219D18569BDB903F07F038C
:1050C800437303F0F6FB437B164A817363F07F0357
:1050D8004373134653F8180F984218BF0546D06912
:1050E8005DB9C4E900300460D46111E0A173002007
:1050F80086F31188BFF36F8FF8BD95F90E70B9422A
:105108000BD08F4209DD6B68C4E900531C606C60EA
:105118000120FFF763FE0120EAE7A842E1D02D68ED
:10512800DEE700BF5009002049B9EFF3058030B928
:10513800054B5A699B689A4201D0FEF703B881F380
:105148001188BFF36F8F70475009002010B54FF0DA
:105158001002EFF3118482F31288BFF36F8F427B42
:10516800510704D484F31188BFF36F8F10BD22F068
:1051780004024273FFF78AFE21460248BDE8104048
:10518800FFF7D2BFB20900204FF01003EFF31181EF
:1051980083F31288BFF36F8F044B9A68D37B013B6C
:1051A800D37381F31188BFF36F8F704750090020C4
:1051B80010B54FF01003EFF3118483F31288BFF397
:1051C8006F8F084B9A68D37B0133D3730020FFF7A6
:1051D80005FE84F31188BFF36F8FBDE8104003F01C
:1051E80053BC00BF50090020024B03F11802C3E969
:1051F8000622704750090020F8B54FF01003EFF36E
:10520800118583F31288BFF36F8F19498868437B30
:1052180003F07F03437303F04CFB8B685A7B08460B
:1052280062F07F025A7350F8182FCC69824208BF87
:10523800002222B9C3E900042360CB610CE093F992
:105248000E6092F90E70BE420ED0B7420CDD516866
:10525800C3E900210B6053600120FFF7BFFD28461A
:10526800BDE8F840FDF76EBFA242E3D01268E0E760
:105278005009002050EA01032DE9F04105460E4689
:1052880003D1FFF7B9FF00202CE0831C71F1FF3335
:105298002ADB03F05EFC2C184FF01003EFF31188A3
:1052A80083F31288BFF36F8F114F124BB8681860E1
:1052B800FFF720FEB86810492A463346183000F038
:1052C800ADF8BA68537B43F0100353734046FDF7BB
:1052D80039FF03F03EFC201A63EB0303012873F146
:1052E8000003D0DBBDE8F0816FF00104241AD3E796
:1052F800500900207C090020DB890008B1F1FF3F3C
:1053080008BFB0F1FF3F08B506D1074B986803F016
:1053180023FB4FF0FF3008BDFFF7ACFF0A22002344
:10532800C117FAF7A5FFF6E750090020014B986866
:10533800704700BF50090020D3B5DDE90667089C17
:10534800CDE90067FFF78CFE1CB1034B9B685B69D6
:10535800236002B0D0BD00BF5009002008B5064840
:10536800064A0749121A03F02CFABDE80840054A14
:105378000549064803F025BA000000201401002062
:10538800BCB3000800000000BCB300080000002007
:10539800034B1B680BB9FEF72FBF0020704700BFF7
:1053A8008809002010B50E4B1C689C4204D1FFF7F9
:1053B800EFFF6FF0004010BDFFF7EAFF002CF8D0B8
:1053C800D4E904321B1A62EBE072B3F1004F72F1B8
:1053D8000001EEDA002AACBF18460020EBE700BF58
:1053E800C800002030B570B10B4B5B6898420AD0FA
:1053F800036843B1D3E90421D0E90445121941EB0C
:105408000501C3E90421D0E9003213605A60002382
:10541800C0E9003330BD00BFC8000020B3F1FF3F32
:1054280008BFB2F1FF3FF8B504461D4616465CD0EA
:1054380081604FF01003EFF3118783F31288BFF3F5
:105448006F8F013275F1FF3324DA2D49D1E900203D
:105458006FF001039B1A4FF0FF3262EB00009E1BB6
:1054680060EB0500012E70F1000301DA012600202F
:10547800C4E90460234ED6F800C07568B44508BF77
:105488004FF0000CBCF1000F0DD1C4E900652C6091
:1054980074601CE0FFF77CFF013645F10005361803
:1054A80045EBE070E4E7DCE90420D4E904319342F9
:1054B80071EB000E1ADAD21ADCF8043060EB010046
:1054C800CCE90420C4E900C31C60CCF8044033686C
:1054D800B34206D09C4204D1FFF764FF0021FEF7D7
:1054E8000DFE87F31188BFF36F8FF8BD9B1A61EB30
:1054F8000001AC45C4E90431C7D0DCF800C0C1E7FD
:1055080000040020C80000202DE9F84F4FF01003D8
:10551800EFF3118C83F31288BFF36F8FDFF8B0A01D
:10552800DFF8B0902C4FC9F80000DAF8000000242A
:10553800504508BF00200025D7E90021D9F80030E0
:10554800E04680B3D0E9046C4FEAE37EB3427EEBD9
:105558000C0B05DAF61A6CEB0E04C0E9046422E0C1
:10556800B21841EBE671C0E90445C7E90021FFF72D
:1055780039FF88F31188BFF36F8F836898474FF01E
:105588001003EFF3118883F31288BFF36F8FD9F8F4
:105598000030DAF800009B1B5045C446C9F80030BB
:1055A800CAD1D7E900219A1841EBE3730024C7E96F
:1055B8000023C9F80040FFF7F5FE2146FEF79EFDDF
:1055C80088F31188BFF36F8FBDE8F84FFFF718BD58
:1055D800C8000020880900200004002010B54FF002
:1055E8001003EFF3118483F31288BFF36F8FFFF773
:1055F800CFFE064A0346D2E90001181841EBE371D1
:1056080084F31188BFF36F8F10BD00BF0004002022
:105618002DE9F3471D46294B9F68012387F8603021
:1056280087F8613052EA050316460CBF01230023B0
:1056380007F16002804603F00FFB81464FF010032C
:10564800EFF3118A83F31288BFF36F8F97F86040E6
:1056580064B901465246404603F09EFA8AF311881F
:10566800BFF36F8F204602B0BDE8F087002387F8AC
:10567800603056EA050306D18AF31188BFF36F8FAD
:105688006FF00A04EEE7CDE900650D4A0D48514672
:10569800FFF7E6FC04464FF01003EFF3118583F3A0
:1056A8001288BFF36F8F2A464946404603F074FAC2
:1056B80085F31188BFF36F8FD4E700BF500900202E
:1056C800D0000020B209002038B503464FF0100280
:1056D800EFF3118582F31288BFF36F8FC160012148
:1056E80081600068834206D185F31188BFF36F8F0C
:1056F8000024204638BDD0E9003213605A600023E8
:10570800C0E9003303F01FFB294604460148FFF7B0
:105718000BFDEEE7B2090020014BC0F8A43070473A
:1057280000010020014801F04BBB00BF60B2000837
:1057380038B5064C064DAC4201D3002038BDD4E93B
:105748000112204603F07CFB1434F4E7000100202A
:10575800140100201FB5094B029302AB00240093EB
:10576800074908488DF80C404FF0FF334FF480622A
:10577800FFF7A6FA204604B010BD00BFA2B2000889
:1057880000280020080400200CB430B589B0054674
:105798000C461C22002101A803F004FD02238DF809
:1057A80006300E4B0293059523462CB1B4F1004FF9
:1057B80028BF4FF00043013B1D440DAA0C990695E4
:1057C80001A8009200F07CF914B1059B00221A7020
:1057D80009B0BDE8304002B0704700BFBD91000875
:1057E800242A2DE9F041044601D8012A48D103F0C2
:1057F800E9FC324B16221A5001B10C6000252846EC
:10580800BDE8F0810546284610F8013BA3F10906DA
:10581800042EF7D9202BF5D02B2B33D02D2B35D0B8
:105828000026302B38D1057845F02005782D2FD16A
:1058380032F010052CD1437804461022023006F1CC
:105848000047013F0025B7FBF2FE02FB1E78392B0B
:1058580082BF03F1FF3343F02003263B303B9A42DB
:105868001ED9754502DC03D1984501D246F00206DF
:10587800844605FB02351CF8013B04466046E6E712
:105888000546C0E700266B78A81CCAE70126FAE798
:10589800002A08BF0822D2E7002A08BF0A22CEE75A
:1058A80001B10C60F20748BF6D42B307A7D503F0FA
:1058B80089FC024B22221A503D46A0E70C0000004A
:1058C800242AF0B5044601D8012A09D103F07AFC4C
:1058D8002C4B16221A5001B10C600020F0BD28464E
:1058E800054615F8013BA3F10906042EF7D9202B2C
:1058F800F5D02B2B28D02D2B2AD00026302B2DD1BC
:10590800287840F02000782824D132F0100021D1E6
:105918006B782C46102202350020392B82BF03F108
:10592800FF3343F02003263B303B9A421AD9A0FBB1
:1059380002040CB9C01801D346F002062F462C46C3
:1059480017F8013B3D46E8E700264378851CD5E774
:105958000126FAE7002A08BF0822DDE7002A08BF67
:105968000A22D9E701B10C60F20748BF4042B307E9
:10597800B4D503F027FC034B22221A504FF0FF3016
:10598800ACE700BF0C0000002DE9F04101260746F6
:10599800B24201DCBDE8F0813B461F4613F8014BDB
:1059A800002CF7D0252CF8D11C78252C07F10207FC
:1059B800F2D00023DFF804819C461D461F2D18D81D
:1059C800A4F1200EBEF1100F09D9A4F1300EBEF1DA
:1059D800090F1ED80A2404FB03E3202504E028FA53
:1059E8000EFE1EF0010F06D017F8014B002CE5D172
:1059F80028E07F2D1CD8A4F1300EBEF1090FE9D99B
:105A0800242C10D1BCF1000F46D0B34246D000235D
:105A1800EAE724F0040EBEF12A0FF8D06C2C09D165
:105A280045F08005E0E724F0040EBEF12A0FEED021
:105A38006C2C22D06C2C1BD8682C23D06A2C28D034
:105A48004C2C26D0BCF1000FA4D0B445A0D144F012
:105A58002007A7F1650CBCF1020F0B6801D9612F73
:105A68001ED1073323F0070308330B6001368EE796
:105A7800742CB9D07A2CB7D0E4E72C0648BF45F48B
:105A88000075CDE7EC0548BF45F4007545F4807511
:105A9800AAE745F42075A7E79C46B8E76324D6E74C
:105AA800692C02D007D8632C03D02F0601D5AC058A
:105AB800D7D40433D9E7732CF6E700BF892801004F
:105AC8002DE9F04F95B04368039383789B07CDE9A0
